:100000000C945D000C9485000C9485000C94850084
:100010000C9485000C9485000C9485000C9485004C
:100020000C9485000C9485000C9485000C9485003C
:100030000C9485000C9485000C9485000C9485002C
:100040000C9466030C9485000C9485000C94850038
:100050000C9485000C9485000C9485000C9485000C
:100060000C9485000C9485000000000024002700FB
:100070002A0000000000250028002B0004040404CE
:100080000404040402020202020203030303030342
:10009000010204081020408001020408102001021F
:1000A00004081020000000080002010000030407FB
:1000B0000000000000000000D00611241FBECFEF9A
:1000C000D8E0DEBFCDBF11E0A0E0B1E0E6EFFDE09B
:1000D00002C005900D92A43FB107D9F722E0A4EF2A
:1000E000B1E001C01D92AB31B207E1F710E0CDE500
:1000F000D0E004C02197FE010E94EE06CC35D10766
:10010000C9F70E94B0030C94F9060C940000CF923A
:10011000DF92EF92FF920F931F93CF93DF936C01C7
:100120007A018B01C0E0D0E0CE15DF0589F0D8015F
:100130006D918D01D601ED91FC910190F081E02D42
:10014000C6010995892B11F47E0102C02196ECCFDE
:10015000C701DF91CF911F910F91FF90EF90DF903A
:10016000CF90089590E0FC01EC55FF4F3491FC01D5
:10017000E057FF4F2491FC01E458FF4FE491EE2338
:1001800009F43BC0332339F1333091F038F4313086
:10019000A9F0323001F584B58F7D12C0373091F06F
:1001A0003830A1F03430B9F4809180008F7D03C0E5
:1001B000809180008F77809380000DC084B58F7709
:1001C00084BD09C08091B0008F7703C08091B000DA
:1001D0008F7D8093B000F0E0EE0FFF1FEE58FF4FD1
:1001E000A591B4918FB7F894EC91611103C020955B
:1001F0002E2301C02E2B2C938FBF0895CF93DF9316
:1002000090E0FC01E057FF4F2491FC01E458FF4FC0
:100210008491882361F190E0880F991FFC01E859CF
:10022000FF4FC591D491FC01EE58FF4FA591B491B9
:10023000611109C09FB7F894888120958223888333
:10024000EC912E230BC0623061F49FB7F894388193
:10025000822F809583238883EC912E2B2C939FBF34
:1002600006C08FB7F894E8812E2B28838FBFDF91CB
:10027000CF9108958E3008F08E50877080648093FF
:100280007C0080917A00806480937A0080917A006B
:1002900086FDFCCF809178002091790090E0922B30
:1002A00008953FB7F8948091F9019091FA01A091D7
:1002B000FB01B091FC0126B5A89B05C02F3F19F0AA
:1002C0000196A11DB11D3FBFBA2FA92F982F8827D6
:1002D000820F911DA11DB11DBC01CD0142E0660F31
:1002E000771F881F991F4A95D1F708958F929F9283
:1002F000AF92BF92CF92DF92EF92FF926B017C019F
:100300000E9451014B015C01C114D104E104F104CC
:10031000F1F00E945101DC01CB0188199909AA0969
:10032000BB09883E9340A105B10570F321E0C21AD4
:10033000D108E108F10888EE880E83E0981EA11C20
:10034000B11CC114D104E104F10419F7DDCFFF9011
:10035000EF90DF90CF90BF90AF909F908F900895D7
:10036000CF93DF93EC0160E08E810E94B20061E0E8
:100370008E810E94B20060E08E810E94B2008BE804
:1003800091E00197F1F7DF91CF910895CF92DF923D
:10039000EF92FF920F931F93CF93DF937C016C0139
:1003A00087E0C80ED11CC0E0D0E0062F10E0B801F5
:1003B0000C2E02C0759567950A94E2F76170F601FC
:1003C00081916F010E94B2002196C430D10579F766
:1003D000C701DF91CF911F910F91FF90EF90DF90B8
:1003E000CF900C94B001CF92DF92EF92FF920F93D7
:1003F0001F93CF93DF93EC01F62E642F8C810E9424
:10040000B2008D818F3F19F060E00E94B2008F85AD
:100410000F2D10E084FF25C06E0187E0C80ED11CAF
:10042000E12CF12CB8010E2C02C0759567950A9449
:10043000E2F76170F60181916F010E94B200FFEF57
:10044000EF1AFF0A88E0E816F10461F7CE01DF91A8
:10045000CF911F910F91FF90EF90DF90CF900C9470
:10046000B001B80184E0759567958A95E1F7CE01F2
:100470000E94C6016F2DCE01DF91CF911F910F9188
:10048000FF90EF90DF90CF900C94C60141E00E9466
:10049000F30181E090E0089540E00C94F3016430B2
:1004A00008F063E090911602691710F06FEF690F82
:1004B000E62FF0E0ED5FFD4F9489682F690F6068CB
:1004C00083E092E00C944C02EF92FF920F931F9303
:1004D000CF93DF931F92CDB7DEB7162F877028E03A
:1004E000829FC0011124682F606483E092E07983C9
:1004F0000E944C02E12E7981F72E8701085F1F4F81
:10050000F70161917F0183E092E00E944602E016CC
:10051000F106B1F70F90DF91CF911F910F91FF90EE
:10052000EF90089561E00E944C028BE39FE10197F8
:10053000F1F70895EF92FF920F931F93CF93DF93FC
:10054000EC01623018F08F8588608F876B8B1C8A76
:1005500080E48D8B80E18E8B80E58F8B61E08C81D8
:100560000E94FE008D818F3F19F061E00E94FE0025
:1005700061E08E810E94FE007E0187E0E80EF11CA2
:1005800000E010E08F8584FD03C084E090E002C0AD
:1005900088E090E0081719074CF461E0F7018191B9
:1005A0007F010E94FE000F5F1F4FECCF8BE39DE0A9
:1005B0000197F1F760E08C810E94B20060E08E81CB
:1005C0000E94B2008D818F3F19F060E00E94B2005E
:1005D0006F8564FD1DC063E0CE010E94C6010BE47F
:1005E00016E4C8010197F1F763E0CE010E94C6014D
:1005F000C8010197F1F763E0CE010E94C60183E5CF
:1006000092E00197F1F762E0CE010E94C60116C0A8
:100610006062CE010E944C028BE496E40197F1F7F0
:100620006F856062CE010E944C0283E592E00197E3
:10063000F1F76F856062CE010E944C026F856062A7
:10064000CE010E944C0284E0888B6CE0CE010E94B7
:100650004C02CE010E94920282E0898B66E0CE01BC
:10066000DF91CF911F910F91FF90EF900C944C026E
:1006700060E087E00E94B20061E088E00E94B20082
:1006800060E08AE00E94B20064E670E080E090E002
:100690000E94760160E088E00E94B20061E08AE09A
:1006A0000C94B200009769F0FC0101900020E9F77A
:1006B0003197AF01481B590BBC0183E092E00C94C9
:1006C000870080E090E008950E94F4061F920F9248
:1006D0000FB60F9211242F933F938F939F93AF9355
:1006E000BF938091F5019091F601A091F701B0912F
:1006F000F8013091F40123E0230F2D3720F4019607
:10070000A11DB11D05C026E8230F0296A11DB11D34
:100710002093F4018093F5019093F601A093F701E3
:10072000B093F8018091F9019091FA01A091FB0139
:10073000B091FC010196A11DB11D8093F901909328
:10074000FA01A093FB01B093FC01BF91AF919F917F
:100750008F913F912F910F900FBE0F901F90189582
:10076000789484B5826084BD84B5816084BD85B58C
:10077000826085BD85B5816085BD80916E00816098
:1007800080936E001092810080918100826080933E
:100790008100809181008160809381008091800040
:1007A0008160809380008091B10084608093B1006B
:1007B0008091B00081608093B00080917A00846065
:1007C00080937A0080917A00826080937A00809191
:1007D0007A00816080937A0080917A0080688093AB
:1007E0007A001092C10061E085E00E94FE0061E0A5
:1007F00084E00E94FE0061E083E00E94FE0061E070
:1008000082E00E94FE0061E081E00E94FE0061E063
:1008100080E00E94FE0061E087E00E94FE0061E04F
:1008200088E00E94FE0061E08AE00E94FE0061E034
:100830008DE00E94FE0061E08CE00E94FE0060E01E
:1008400081E10E94FE0060E080E10E94FE0060E025
:1008500082E10E94FE0068E371E081E00E94640290
:1008600060E371E082E00E94640268E271E083E08C
:100870000E94640260E271E084E00E94640268E128
:1008800071E085E00E94640260E171E086E00E9410
:10089000640268E071E087E00E94640260E071E059
:1008A00088E00E94640262E083E092E00E949A0283
:1008B00083E092E00E94920260E080E00E944F029A
:1008C00088E491E00E94520361E080E00E944F02C0
:1008D00089E591E00E94520368EE73E080E090E0C9
:1008E0000E94760183E092E00E9492028AE691E003
:1008F0000E94520361E080E00E944F028BE791E08A
:100900000E9452036CE271E080E090E00E94760168
:1009100083E092E00E94920280E0E82E80E0F82ED0
:1009200081E10E943A018C019093020280930102BE
:1009300080E10E943A01EC01909300028093FF0154
:1009400082E10E943A019093FE018093FD0184367A
:1009500091057CF5043611050CF05CC0C436D10558
:100960000CF0E6C060E087E00E94B20060E080E04A
:100970000E944F028CE891E00E94520361E080E007
:100980000E944F028DE991E00E94520361E08CE0E9
:100990000E944F0281EA91E00E94520361E083E0ED
:1009A0000E944F0286EA91E00E9452030E9438039F
:1009B00028C08436910509F4D4C1043611050CF021
:1009C000D0C1C436D1050CF0E4C061E087E00E94DC
:1009D000B20060E080E00E944F0280EB91E00E9454
:1009E000520361E080E00E944F0281EC91E00E949E
:1009F000520360E08AE00E94B20060E088E00E945A
:100A0000B20060E08CE00E94B20060E08DE00E94E5
:100A1000B20081C0C536D1050CF4EFC060E087E0BC
:100A20000E94B20060E08AE00E94B20060E088E0CC
:100A30000E94B20061E08CE00E94B20061E08DE0B3
:100A40000E94B20060E080E00E944F028CE891E0DA
:100A50000E94520361E080E00E944F028DE991E024
:100A60000E94520361E08CE00E944F0281EA91E013
:100A70000E94520361E083E00E944F0261E083E044
:100A800092E00E94460261E084E00E944F0262E030
:100A900083E092E00E94460261E085E00E944F02FE
:100AA00063E083E092E00E94460261E086E00E94FB
:100AB0004F0264E083E092E00E94460261E087E03A
:100AC0000E944F0264E083E092E00E94460261E0EF
:100AD00088E00E944F0265E083E092E00E944602B7
:100AE00061E089E00E944F0266E083E092E00E94AC
:100AF000460261E08AE00E944F0267E083E092E0F4
:100B00000E94460261E08BE00E944F0268E083E0B1
:100B100092E00E94460264E670E080E090E00E946D
:100B20007601E114F10409F4FBCE0E940000F8CE36
:100B3000C436D10509F465C060E087E00E94B200C8
:100B400061E088E00E94B20060E08AE00E94B200AA
:100B500062E370E080E090E00E94760160E088E06F
:100B60000E94B20061E08AE00E94B20060E087E08B
:100B70000E94B20060E08CE00E94B20060E08DE074
:100B80000E94B20060E080E00E944F028CE891E099
:100B90002BC0C436D105A9F161E088E00E94B20003
:100BA00060E08AE00E94B20062E370E080E090E0E2
:100BB0000E94760160E088E00E94B20061E08AE075
:100BC0000E94B20061E087E00E94B20060E08CE029
:100BD0000E94B20060E08DE00E94B20060E080E020
:100BE0000E944F0283EE91E00E94520361E080E098
:100BF0000E944F0282ED91E074C0053611050CF0A1
:100C000073C061E087E00E94B20060E08AE00E9469
:100C1000B20060E088E00E94B20060E08CE00E94D8
:100C2000B20061E08DE00E94B20060E080E00E94CE
:100C30004F0283EE91E00E94520361E080E00E9447
:100C40004F028DE991E00E94520361E08CE00E9426
:100C50004F0281EA91E00E94520361E083E00E942A
:100C60004F0261E083E092E00E94460261E084E08E
:100C70000E944F0262E083E092E00E94460261E03F
:100C800085E00E944F028DEA91E00E94520361E0EC
:100C900085E00E944F0263E083E092E00E944602FA
:100CA00064E083E092E00E94460261E085E00E94F9
:100CB0004F028DEA91E00E94520361E085E00E94BC
:100CC0004F0263E083E092E00E94460264E083E02A
:100CD00092E00E94460261E087E00E944F028AEAA9
:100CE00091E00E94520317CF843691050CF089CF12
:100CF0000E94380360E087E00E94B20060E08CE070
:100D00000E94B20061E08DE00E94B20060E080E0ED
:100D10000E944F028CE891E00E94520361E080E063
:100D20000E944F028DE991E00E94520361E08CE045
:100D30000E944F0281EA91E00E94520361E083E049
:100D40000E944F0261E083E092E00E94460261E06F
:100D500084E00E944F0262E083E092E00E9446023B
:100D6000ACCFC536D1050CF448CF60E087E00E94D7
:100D7000B20060E08AE00E94B20060E088E00E9479
:100D8000B20061E08CE00E94B20061E08DE00E9460
:100D9000B20060E080E00E944F0283EE91E058CE06
:100DA000E3E0F2E01382128284E491E09183808395
:100DB00085E084838FEF858384E0868383E0878367
:100DC00082E0808781E081871286138614861586EB
:100DD0001686178661E0CF010C949A02EE0FFF1F72
:100DE0000590F491E02D099481E090E0F8940C9442
:060DF000F906F894FFCFA4
:100DF6001F1F1F1F1F1F1F1F001F1F1F1F1F1F1F1C
:100E060000001F1F1F1F1F1F0000001F1F1F1F1F87
:100E1600000000001F1F1F1F00000000001F1F1FF3
:100E26000000000000001F1F0000000000001F1F40
:100E3600000000004602870053414D2D54454348AB
:100E46004E4F4C4F4749455300496E697469616C72
:100E5600697A696E672E2E2E20004155544F4D41FA
:100E660054494320205741544552002050554D5077
:100E7600494E472053595354454D200053554D5024
:100E86002054414E4B20454D50545921004C4F574C
:100E9600004849474800202020202020202020000C
:100EA6004155544F2057415445522050554D5020DE
:100EB6000057617465722050756D70696E672E2ECD
:100EC6002E004572726F72204465746563746564A2
:100ED6002120005741544552204C564C204D455434
:040EE6004552200051
:00000001FF
